:020000040800F2
:1000000000000824014101088D4B01089B4B0108A9
:10001000A14B0108A74B0108AD4B010800000000EF
:10002000000000000000000000000000B34B0108C9
:10003000C14B010800000000CF4B0108DD4B010857
:100040005141010851410108514101085141010844
:100050005141010851410108514101085141010834
:10006000E94B0108F94B0108094C0108514101080D
:100070005141010851410108514101085141010814
:100080005141010851410108514101085141010804
:10009000514101085141010851410108194C010821
:1000A00051410108514101085141010851410108E4
:1000B00051410108514101085141010851410108D4
:1000C00051410108514101085141010851410108C4
:1000D00051410108514101085141010851410108B4
:1000E000314C010851410108000000005141010854
:1000F0005141010851410108514101085141010894
:10010000514101087B4C010851410108514101084E
:100110005141010851410108514101085141010873
:10012000514101084F4C010851410108974C010809
:100130003F4C01085141010851410108514101085A
:100140005141010851410108000000000000000079
:100150005141010851410108514101085141010833
:100160005141010851410108514101085141010823
:100170005141010851410108894C0108000000006B
:100180005141010851410108514101085141010803
:1001900051410108514101085141010851410108F3
:1001A00051410108514101085141010851410108E3
:1001B00051410108514101085141010851410108D3
:1001C00051410108514101085141010851410108C3
:1001D00051410108514101085141010851410108B3
:1001E00051410108514101085141010851410108A3
:1001F0005141010851410108514101085141010893
:100200005141010851410108514101085141010882
:100210005141010851410108514101085141010872
:1002200051410108514101086D4C0108514101083B
:100230005141010851410108514101085141010852
:1002400051410108514101085D4C0108514101082B
:100250005141010851410108514101085141010832
:100260005141010851410108514101085141010822
:100270005141010851410108514101085141010812
:10028000514101085141010851410108000000009D
:08029000514101085141010830
:1002980010B5054C237833B9044B13B10448AFF3B8
:1002A80000800123237010BD000600240000000018
:1002B800CC58010808B5034B1BB103490348AFF3F9
:1002C800008008BD0000000004060024CC58010886
:1002D800F0B5054681B0402105F10C0015F0C5FACE
:1002E800DFF81C0CDFF81C1C026800244CF24026C6
:1002F8005208520002600B684FF6F0700340B34298
:100308001FBF096808404CF27022904235D1DFF8CF
:10031800F83B186888BBDFF8F40B0168C1F30B01E0
:10032800B1F58A6F1FBF0068C0F30B0040F283412C
:10033800884222D1DFF8D81B01228A608868002809
:10034800FCD1DFF8D02BDFF8D03B0A60096899426E
:1003580022D0686468616A89E8612889AC612C6187
:10036800EC606C622C62AA86E8862C6428880128D6
:1003780014D000285DD00224A3E0DFF8A01B0122DE
:100388008A6088680028FCD1DFF8882BDFF8883B72
:100398000A6009689942DCD16B64DBE7DFF8801BEF
:1003A8000878002840F08D800023DFF8780BDFF80C
:1003B800782B0E1D56F8236002EA065700EA060C51
:1003C800C6F309566744F7190E1D46F823705B1CDF
:1003D8000F1D57F8236002EA065C00EA060EC6F312
:1003E8000956F444B4440E1D46F823C05B1C57F864
:1003F800236002EA065C00EA060EC6F30956F444D6
:10040800B4440E1D46F823C05B1C57F8236002EA6B
:10041800065C00EA060EC6F30956F444B4440E1D01
:1004280046F823C05B1CB3F5807FC2DB012008704F
:1004380047E0DFF8EC0A0178012942D10023DFF810
:10044800E41ADFF8E42A061D56F8236002EA065784
:1004580001EA060CC6F309566744F719061D46F863
:1004680023705B1C071D57F8236002EA065C01EA4B
:10047800060EC6F30956F444B444061D46F823C0D4
:100488005B1C57F8236002EA065C01EA060EC6F315
:100498000956F444B444061D46F823C05B1C57F8BB
:1004A800236002EA065C01EA060EC6F30956F44424
:1004B800B444061D46F823C05B1CB3F5807FC2DB3D
:1004C8000470688830B1012811BF641C286C40F0A2
:1004D80020002864A98E012904BFE88E012803D1D1
:1004E800296C41F040012964686828B1296C686862
:1004F800E86241F0100129640021298714B9286CA9
:1005080080302864204601B0F0BD0000F0B581B00D
:1005180005460E4600242DED028B686CDFF8F819AD
:10052800884218BF042040F0E380296C21F48071D0
:1005380029643288052A18BF062A1DD0072A18BF41
:10054800012A19D0022A1CBF032A042A14D008241D
:10055800B5F93800B6F90410884204BF2B8E9342CF
:1005680000F0BE80B6F9047017F10C0F5DDA6FF079
:100578000B004034B080B1E02B8E9342E8D00909DB
:1005880042EA0111296401F00F0001F0700170299D
:1005980025D1401E0628DBD8DFE800F01115191D0B
:1005A80005090D00D4E7DFF8080CA864DAE7DFF8DE
:1005B800041CA964D6E7DFF8000CA864D2E7DFF8CA
:1005C800FC1BA964CEE7DFF8F80BA864CAE7DFF8DC
:1005D800F41BA964C6E7DFF8F00BA864C2E7401E65
:1005E8000628B5D8DFE800F01115191D05090D001A
:1005F800AEE70FF25911A964B4E70FF26920A864B5
:10060800B0E70FF2D131A964ACE70FF23550A86416
:10061800A8E70FF2ED61A964A4E70FF61110A8642A
:10062800A0E70FF6B131A9649CE7342F03DB332030
:100638004034B08052E095F840009FED868ADFEDA7
:10064800858A00F00F00401E062827D8DFE800F052
:1006580013181D2204090E00B3EE008ADFED7E8A0E
:100668001CE0B2EE0C8ADFED7D8A17E0B2EE0A8A52
:10067800F2EE008A12E0B2EE068ADFED798A0DE02A
:10068800B2EE048AF7EE008A08E0B2EE028ADFEDE5
:10069800CF8A03E0B1EE0C8AF4EE008A3846F3EE16
:1006A800040A00EE100AB8EEC00AC0EE200AB2EE44
:1006B800040A14F009FF60EE288A9FEDC51A71EE4E
:1006C800480AB0EE000A14F0FFFE28EE800A15F082
:1006D8005FF8BCEEC00A2F8785ED0F0A30882886A0
:1006E800718869861CB9286C40F48070286420469B
:1006F800BDEC028B01B0F0BD426CDFF81C389A42A9
:1007080001D004207047428E4A80038E0B80008FF0
:1007180088800020704710B481B013465A6CDFF807
:10072800F847A24218BF042006D11A6CD40506D493
:100738002020130658BF302001B010BC704703F1C9
:100748000C029B6C01B010BC184700002DE9F04F5B
:1007580086B013468246D3F810E0D3F8148098691F
:100768000C460490DF69D3F808C0D96800250391C6
:100778005A6BD3F83090DFF8540ADFF8541A02F0B5
:10078800100602F0200202960192DE8CDFF8902714
:10079800002E4FD005945C8D012C05D1019C5AF890
:1007A800026B54B176BA08E09AF800B0E4B21AF8CD
:1007B80004600AEB440A0BEB0626141D06F0FF0B37
:1007C80054F82B40C6F30726E719C7F30904BB46BC
:1007D800171D57F8267007EB9B27C7F30906BF0AB2
:1007E80046EA0446029C26FB01CB26FB00FCABF53F
:1007F800006B4CB11E6ADE44AEEB080ED8465EFBB9
:1008080016FE4FEA4E0EF346059E4FEA0B4B009636
:100818005BFB19F41E8D1FFA85FB6D1C24F38F04F6
:1008280006FB0BF6DDF800B02BF81640DE8CACB2F8
:10083800B442B0D3C3F808C00398D860DF61C3F8E6
:1008480010E0C3F8148004989861002006B0BDE851
:10085800F08F0000000000000000804226B497419D
:1008680026B417402DE9F04F84B007468846106932
:10087800516993690293566BD369D2F80890D2F8FC
:100888000CC0D2F830E006F0100B06F02006CDF8C8
:1008980004B000250096D68CDFF884A6002E00F060
:1008A8008780CDF80C80A846558D012D22D1009D5A
:1008B8003C78BDB108EBD87BFE784FEA6B0BB8EB00
:1008C8004B0507D124027D7804EB0644BF1C64194C
:1008D8001EE000BF97F802B0360206EB0B463F1D3C
:1008E800A41915E07E78BD78FF1C360206EB054694
:1008F800A4190DE0EDB297F800B07E5D17F8154029
:1009080005EB4505360206EB04462F4406EB0B04BF
:100918000AF1040504F0FF06240A55F826500AF1E6
:10092800040B04F0FF065BF8266005EB9325240A08
:1009380006EB9526C5F30903C6F3090545EA034501
:100948005BF82430DFF888484FF0010B03EB96235F
:1009580025FB04C4DFF8F8CDC3F3090625FB0C9C7E
:1009680006EB460906EB4606A4F5D8540CEB490CF1
:1009780025FB0BF9019DB1443DB1166A2018401AB8
:10098800214650FB16F040000446168DA40354FB84
:100998001EF5039C06FB08F608F101081FFA88F803
:1009A80025F38F0524F81650D58CA845FFF67CAFA3
:1009B800C2F80890C2F80CC0D36110615161029866
:1009C8009061002004B0BDE8F08F00006F12033F73
:1009D800000000422DE9F04F84B082468846106935
:1009E800516993690293576BD3699468D2F80CC024
:1009F800D2F830E007F0100B07F02007CDF804B06C
:100A080000260097D78CDFF81895002F00F08B8010
:100A1800CDF80C80F046558D012D06D1009D5AF871
:100A280004EBBDB19EFA9EFE14E0EDB21AF815E093
:100A380005EB45071AF807B01AF805704FEA0E4E8D
:100A48000EEB0B6E9AF800B00AEB850A0EEB072E38
:100A58000EEB0B0E09F104050EF0FF074FEA1E2EF0
:100A680055F8275009F1040B05EB93250EF0FF0309
:100A78005BF823304FEA1E2E0EF0FF0B4FEA1E2EB6
:100A880003EB9523C5F30907C3F3090545EA0745B1
:100A980009F1040757F82BB00BEB932B09F104036A
:100AA80053F82E3003EB9B23CBF309074FF4803B1D
:100AB800C3F3090E4EEA074EDFF8987C25FB07CCF6
:100AC8002EFB0BC7DFF890CCDFF890BC25FB0C445D
:100AD800DFF890CDA7F580472EFB0C4C012425FBB1
:100AE80004F4019D2EFB0B4445B1D2F820E03818E0
:100AF800401A394650FB1EF040000746B2F828B0AD
:100B08007F0357FB18F5B7B2DDF80CE0761C0BFB3A
:100B180007F725F38F052EF81750B2F826E0B5B27F
:100B28007545FFF478AF9460C2F80CC0D3611061CA
:100B3800516102989061002004B0BDE8F08F000078
:100B48002DE9F04F85B007468846106951699369C9
:100B58000393566BD369D2F80890D2F80CC0156B82
:100B680006F0100B06F02006CDF804B04FF0000E8A
:100B78000096D68CDFF8A8A3002E00F0B480CDF83C
:100B88001080F0460295558D012D0AD13C683D1D17
:100B9800D5F800E0AF1C009D05B364BA9EFA9EFE2E
:100BA8001CE0EDB217F8156005EB450E17F80E407E
:100BB80017F805E005EB850B360406EB04663C7870
:100BC80006EB0E2617F825E016EB040417F80B6061
:100BD8000EEB062E05EB450607EB46070AF1040B5C
:100BE80004F0FF05240A5BF8255005EB932504F073
:100BF800FF035BF82330240A04F0FF0B240A03EBFD
:100C08009523C5F30906C3F3090545EA06450AF124
:100C1800040656F82BB056F824600BEB932B06EB22
:100C28009B26CBF309030AF1040BC6F3090444EA33
:100C380003440EF0FF035BF82330CEF3072E5BF876
:100C48002EE0DFF810BB03EB9623C3F309060EEB87
:100C58009323C3F3090E4EEA064EDFF80C6C25FB0E
:100C680006CC4FF4803624FB0BCC4FF01B1B2EFB1D
:100C780006C6DFF8F8CB25FB0C99DFF8F4CB24FB8C
:100C88000B99A6F558462EFB0C9C4FF0010925FB45
:100C980009F9DFF8C85A24FB0599DFF8304D019DA2
:100CA8002EFB049945B1D2F820E03018401A31469D
:100CB80050FB1EF040000646029DF6021FFA88F41B
:100CC800DDF810E008F1010856FB15F5168D7443A0
:100CD80025F38F052EF81450B2F826E01FFA88F590
:100CE8007545FFF450AFC2F80890C2F80CC0D36144
:100CF8001061516103989061002005B0BDE8F08F44
:100D08002DE9F04F84B013468646D3F81080D3F807
:100D1800149098690290DE8CDC69D3F808A0D3F8A7
:100D28000CB0186B4FF0000C7D4A002E00F0D880F4
:100D380003910190598D01290AD193F83460FEE896
:100D480002010D46B7062AD540BA6DBA27E000BFA2
:100D58001EF8116001EB41001EF800501EF801005A
:100D68009EF80070360406EB0566C1EBC10506EB7C
:100D78000026F01901EB410601EB81071EF805502A
:100D880076001EF80660360406EB05661EF8075066
:100D980006EB05261EF821500EEBC10E7519111D24
:100DA80000F0FF0651F82670000A3C1900F0FF0712
:100DB80051F82710C4F3090601EB9424010A01F045
:100DC800FF07090AC4F3090040EA0640161D56F851
:100DD800277007EB9427141D54F8214004EB97243F
:100DE800C7F30906171DC4F3090141EA064105F0D6
:100DF800FF0657F8266006EB94262C0A0096C6F3E1
:100E0800090504F0FF0657F82660009F240A06EB40
:100E180097260096C6F3090704F0FF0647EA05453A
:100E2800171D57F82670009E240A07EB962700978F
:100E3800C7F30906171D57F82440009F04EB9724B1
:100E4800C4F30907A40A47EA0646DFF8847B20FBB7
:100E580007BBDFF8147A21FB07BBDFF8F87825FB1E
:100E680007BB4FF4803726FB07B7DFF868BB20FBCA
:100E78000BAA26FB1BAADFF860BBA7F5003721FBEE
:100E88000BAA25FB1BAB4FF0010A20FB0AFADFF87F
:100E9800CC0821FB00A0DFF8341B25FB0100DFF89C
:100EA800DC5C26FB050A186A40B1B844A8EB0908BF
:100EB80058FB10F8B9464FEA4808474601981D8D77
:100EC800BF02039957FB10F005FB0CF50CF1010C60
:100ED80020F38F0021F81500D88C8445FFF62AAF3F
:100EE800C3F808A0C3F80CB0DC61C3F81080C3F8DD
:100EF800149002989861002004B0BDE8F08F0000BB
:100F0800002000E000ED00E0002004E00010005C9C
:100F1800004C0258C2A507F4CDB5E8B50030024030
:100F28009401002400FC0F000000F03F2DE9F04F71
:100F38000C4684B011464FF0000B0B69D1F81480B1
:100F48008A690292B1F826C0CA69D1F80890D1F826
:100F58000CA0D1F830E0BCF1000F00F01A81039426
:100F680084460091CDF804E0DDF800E0BEF82A40A0
:100F7800012C12D1009CDCF800E00CF1040000F117
:100F8800040C01685CF8020B94F83450AE0637D5AF
:100F98009EFA9EFE49BA40BA32E0E4B21CF814E068
:100FA80004EB44001CF800101CF80400C4EBC40552
:100FB8004FEA0E4E0EEB016E9CF800101CF805600F
:100FC8000EEB002E04EB440040001CF800708E4429
:100FD80004EB84011CF824003F0407EB06671CF8A7
:100FE800015004EBC40607EB05271CF834503918E8
:100FF8001CF8067005EB072004EB84050CEB450C88
:10100800DFF87C6B0EF0FF0756F827404FEA1E2EDC
:101018000EF0FF07A21856F82740C2F3090504EBA3
:1010280092244FEA1E22C4F3090E4EEA054E3546B5
:1010380002F0FF06120A55F8267055F82250DFF81C
:10104800402B07EB942705EB9725C7F30906DFF834
:10105800307BC5F3090444EA064401F0FF0652F860
:101068002620090A01F0FF0602EB952257F82660B0
:10107800C2F3090506EB92260A0AC6F3090141EAFA
:10108800054102F0FF0557F82550120A05EB962591
:10109800DFF8EC6A56F82260DFF8E42A06EB9526BA
:1010A800C5F30907C6F3090545EA074500F0FF0738
:1010B800C0F3072052F8277052F8202007EB962734
:1010C80002EB9722C7F30906DFF80479C2F3090097
:1010D800920A40EA0640DFF8AC6A2EFB06AADFF85F
:1010E800886724FB07AA4FF4803721FB06AADFF89C
:1010F800646625FB06AA20FB07A6DFF88CAA4FF03A
:101108004B172EFB0A99DFF8A4ACA6F57A3624FB18
:101118000A99DFF89CAC21FB079925FB0A99DFF8AF
:1011280094AC20FB0A9A4FF001092EFB09F9DFF86D
:101138002CE624FB0E99DFF89448DFF87CEC21FBC1
:101148000491DFF8389A25FB091120FB0E19009845
:10115800006A38B1F318A3EB080353FB10F3B04649
:101168005B001E46DDF800E0019876020399BEF8A0
:10117800284056FB10F004FB0BF40BF1010B20F395
:101188008F0021F814000098C18C8B45FFF6ECAE57
:101198000146C1F80890C1F80CA0CA610B61C1F8FA
:1011A800148002988861002004B0BDE8F08F000028
:1011B8008115000839160008691700087D1800080D
:1011C800E5190008951B0008D51D0008030001005B
:1011D800010003002DE9F04F89B08146D2F810A034
:1011E800D2F814B090694FF000080790D68CD569F2
:1011F800D2F808C0D2F80CE0106BDFF8C04B002E14
:1012080000F0AA810891019206900198468D012E5E
:101218000DD1019EF9E80201F9E8022396F834702D
:10122800BE065BD540BA49BA52BA5BBA56E0F6B2C6
:1012380099F8003019F8162006EB460019F8001046
:1012480019F80600C6EBC607120402EB016206EBAA
:10125800460102EB0022490019F80110D01806EBEC
:10126800860319F80720090401EB026119F80370D5
:1012780019F8262001EB072106EB860789180B22AF
:1012880012FB06F27F0019F8073019F8367019F8C2
:1012980002201B0403EB026306EBC60219F80220C6
:1012A80003EB0223DA19C6EBC607C6EB06137F0069
:1012B80019F8077019F803303F0407EB03670D238B
:1012C80013FB06F319F8033007EB032706EB460375
:1012D8009B0019F8033009EB0619FB18261D00F0CE
:1012E800FF0756F82770000A7E19C6F3090500960D
:1012F800271D00F0FF06000A57F82660009F06EB3E
:101308009726C6F3090747EA0547251D059700F004
:10131800FF0755F82750000A05EB9625261D56F8B5
:10132800206001F0FF00090A06EB9526C5F30907BE
:10133800C6F3090545EA0745271D049557F8200017
:1013480000EB962001F0FF0657F82660090A06EB25
:101358009026C0F3090501F0FF00090AC6F3090742
:1013680047EA0547251D039755F8200000EB96200E
:10137800261D56F8211002F0FF06120A01EB9021F3
:10138800C0F30905C1F3090747EA0547251D029778
:1013980055F8260002F0FF06120A00EB9120211DE5
:1013A80051F8261002F0FF06120A01EB9021C0F353
:1013B8000905C1F3090747EA0547251D009755F8B0
:1013C8002600271D00EB9120211D51F82210221D17
:1013D80001EB9021C0F30905C1F3090040EA05407B
:1013E80003F0FF051B0A52F8256006EB912603F06F
:1013F800FF0157F821201B0A02EB9622C6F30905C4
:1014080003F0FF061B0AC2F3090141EA0541251D45
:1014180055F8267007EB9227221D52F82350DFF863
:10142800A03905EB9725C7F30906049FC5F3090200
:10143800AD0A42EA0642059E26FB03E3DFF884E98B
:10144800DFF8846927FB0E33DDF80CE0DFF834772A
:101458002EFB0633029EDFF878E526FB0733009F54
:10146800DFF8046427FB0E33DFF8E8E24FF4803737
:1014780020FB0633DFF82C6C21FB0E33DDF814E07B
:1014880022FB0733DFF8207C2EFB06CC049EDFF816
:101498001CECA3F5801326FB07CC039FDFF8106C28
:1014A80027FB0ECCDDF808E0DFF8087C2EFB06CC25
:1014B800009EDFF804EC26FB07CCDFF8007CDFF8A1
:1014C800006C20FB0ECC21FB07CC059F22FB06CE2F
:1014D8004FF0010CA14E27FB0CFC049F27FB06CC08
:1014E800039FDFF8E86427FB06CC029FDFF88C66D1
:1014F80027FB06CC009FDFF8C06827FB06CCDFF887
:10150800C46B20FB06C0DFF8C0CB21FB0C00DFF862
:10151800BC1B22FB010C0198006A40B19A44AAEB5B
:101528000B0A5AFB10FA9B464FEA4A0A5346019A9D
:101538000698DB01089953FB10F0138D03FB08F3A1
:1015480008F1010820F38F0021F813000198C18CDD
:101558008845FFF65AAE0246C2F808C0C2F80CE049
:10156800D561C2F810A0C2F814B0079890610020A5
:1015780009B0BDE8F08F00002DE9F04F83B01646A2
:10158800814634697569B06988460290F169B36823
:10159800F0680190F08CD6F830C0D6F820E0012829
:1015A80039DBDFF82C7B4A460097DFF81078E146F4
:1015B80052F802CB9CFA9CFB07F1040C0BF0FF0AD3
:1015C800CBF3072B5CF82AA00AEB010C391D51F864
:1015D8002B10CCF3090A01EB9C21C1F3090C890AF1
:1015E8004CEA0A4CDFF8ECAA2CFB0A3A009BAAF555
:1015F800006A5444641B554654FB1EF42CFB03F349
:1016080064004FEA044C5CFB19FC401E2CF38F0C61
:1016180028F802CBCCD1B3600198F060F161346155
:1016280075610298B061002003B0BDE8F08F00003A
:101638002DE9F44F82B086468C46029D10695169A7
:101648009469DDF808800194EE69AA68EB682C6B50
:10165800ED8CD8F820804FF0000A002D40F3678009
:101668000AEBDA799EF803709EF800B04FEA690930
:10167800BAEB49090AD14FEA0B2B9EF801900BEB04
:10168800074B0EF1020E0BEB090707E09EF80290DC
:101698003F0207EB09470EF1040E5F44DFF8E094C0
:1016A80007F0FF0B59F82BB00AF1010A0BEB962B48
:1016B8003E0ACDF800B006F0FF07360ACBF3090959
:1016C800DFF8BCB45BF82770DDF800B007EB9B27A8
:1016D800C7F3090B4BEA0949DFF8A4B45BF82660A5
:1016E800DFF8F0B906EB972629FB0B3B184BABF557
:1016F800D85B5844C6F30907401A29FB032307EBB4
:10170800470250FB18F007EB470703EB420301229F
:1017180029FB02F2594640004FEA803959FB14F977
:10172800BA18AA4529F38F092CF8029B98DB029C6A
:10173800A260029AD360029BDE61029A106102984D
:101748004161029A01990020916103B0BDE8F08FD0
:1017580007000600030006000C000A00060003004C
:101768002DE9F44F83B084468946039D1069516979
:1017780094690294EA69AB68D5F80CE02C6BEE8C9E
:101788002D6A012E5CDB0194DFF84C89DFF82C769A
:10179800009534465CF8045B3E1D07F1040B6DBAF6
:1017A80005F0FF0A2D0A56F82A6006EB922605F086
:1017B800FF025BF822202D0A05F0FF0B2D0A02EB31
:1017C8009622C6F3090AC2F3090646EA0A4607F151
:1017D800040A5AF82BB00BEB922B3A1D52F825202D
:1017E80026FB08EE02EB9B22CBF3090ADFF874B064
:1017F800C2F3090545EA0A454FF4803A25FB0AEA8F
:10180800DFF8D8E826FB0E3325FB0B3E0123AAF5AB
:10181800804A5044401A514626FB03F3DFF8C0685B
:1018280025FB0633009D019E50FB15F04000450343
:1018380055FB16F5641E25F38F0529F8025BA9D11F
:10184800039CA360039BC3F80CE0039CE261039A2A
:10185800106103984161039A02990020916104B0D4
:10186800BDE8F08F0A000C000A000F0019001500EF
:10187800150019002DE9F44F83B084468846039D6E
:101888001069516994690294EA69AB68D5F80CE06B
:101898002C6BEE8C2D6A012EC0F28580DFF81C952A
:1018A800019400950CF10404DCF80050276804F159
:1018B800020C6DBA05F0FF0A2D0A7CBA09F104077B
:1018C80057F82AB005F0FF0A0BEB922B09F1040236
:1018D80052F82AA02A0A0AEB9B2ACBF3090709F136
:1018E800040BCAF3090545EA074502F0FF075BF850
:1018F8002770120A07EB9A2709F1040A5AF822A05E
:1019080004F0FF02C4F307240AEB972AC7F3090B74
:10191800CAF3090747EA0B4709F1040B5BF82220D1
:101928005BF82440DFF8B0B702EB9A22C2F3090A49
:1019380004EB9222C2F3090444EA0A44DFF8A4A79C
:1019480025FB0AEE4FF4803A27FB0BEE4FF01B1BEA
:1019580024FB0AEADFF890E725FB0E33DFF88CE773
:1019680027FB0B33AAF5584A5044401A514624FB2A
:101978000E3E012325FB03F3DFF8645727FB0533ED
:10198800DFF86C77019D24FB0733009C50FB14F0B3
:101998004000C40254FB15F4761E24F38F0428F883
:1019A800024B7FF47FAF039CA360039BC3F80CE05A
:1019B800039CE261039A106103984161039A0299BA
:1019C8000020916104B0BDE8F08F00000F000A000C
:1019D80015001C002A00240030002E002DE9F44FC9
:1019E80084B08E461669D2F814B09169049A0446F8
:1019F8000291D1691046D2F80C808568026B0346C3
:101A0800D88C1B6A0128C0F2A6800394DFF8ACC307
:101A180001920093039F0CF1040908370397083FCC
:101A2800D7E9002354BA5ABA0CF1040304F0FF0AA8
:101A3800240A59F82A7004F0FF09240A53F8299057
:101A48007918C1F3090A09EB91290CF104010CF189
:101A58000407C9F3090343EA0A4304F0FF0A240A06
:101A680051F82AA057F824100AEB992A01EB9A2179
:101A7800CAF3090902F0FF0A120AC1F3090444EA89
:101A880009440CF1040959F82A9009EB912902F04C
:101A9800FF0157F82110120A02F0FF07120A01EBA2
:101AA8009921C9F3090AC1F3090949EA0A490CF15C
:101AB800040A5AF8277007EB91270CF1040151F832
:101AC800221001EB9721C7F3090ADFF81876C1F352
:101AD8000902890A42EA0A42DFF818A623FB0A88A3
:101AE800DFF8F4A524FB0788DFF80C7629FB0A88C1
:101AF8004FF4803A22FB0A8ADFF8008623FB085855
:101B0800DFF8F85522FB15880125AAF5003A564456
:101B1800A6EB0B06D34624FB078829FB1788DFF8BA
:101B2800C07523FB05F3154D24FB0733DFF8C045CB
:101B380029FB043322FB0535009A019B56FB12F65C
:101B48007600B20252FB13F2401E22F38F022EF8E7
:101B5800022B7FF45FAF04988560049AC2F80C806A
:101B68000498C16104990E610498C0F814B0049AED
:101B780002990020916105B0BDE8F08F1C001500A6
:101B88009801002424002D003F0037002DE9F44F70
:101B9800834685B01046DDF814A0059F02694369A5
:101BA800846904945046DAF81C508468B7F826E033
:101BB800DAF80CA0006B3F6ABEF1010FC0F2E480B6
:101BC8008C4603907D490297CDF804C04FEA0E0079
:101BD800DBF80070DBF804C0DBF808800BF10A0BB7
:101BE80097FA97FE9CFA9CF901F1040C98FA98F779
:101BF8000EF0FF084FEA1E2E5CF8286001F1040879
:101C080075190EF0FF0658F82680C5F3090C4FEA3F
:101C18001E2E0EF0FF0608EB95284FEA1E2EC8F37D
:101C2800090545EA0C4C0D1D55F8266006EB98266B
:101C380001F1040858F82E8008EB9628C6F3090528
:101C48000E1DC8F3090E4EEA054E09F0FF0556F8B9
:101C580025504FEA192905EB98250095C5F3090881
:101C680009F0FF0556F82550009E4FEA192905EBA3
:101C780096250095C5F3090609F0FF0546EA0848C8
:101C88000E1D56F82560009D4FEA192906EB95268A
:101C98000096C6F309050E1D56F82960DDF8009078
:101CA80006EB99260096C6F309090E1D49EA05496F
:101CB80007F0FF0556F82560009DC7F3072706EBD8
:101CC80095260096C6F309050E1D56F82760009F55
:101CD80006EB9726C6F3090747EA0547B50ADFF872
:101CE80020642CFB06AADFF80C642EFB06AADFF89A
:101CF800F46328FB06AADFF8E06329FB06AA4FF481
:101D0800803627FB06A6DFF8FCA32CFB0A44DFF885
:101D18009CA02EFB0A444FF04B1AA6F57A36B2184F
:101D2800D21A334628FB0A44DFF884A029FB0A4468
:101D3800DFF880A027FB0A4A01242CFB04FCE84CAE
:101D48002EFB04C4DFF8A8C3DFF86CE028FB0C44C2
:101D5800DFF8B483DDF80CC029FB084427FB0E44E8
:101D6800029FDDF804E052FB17F25200570257FBBE
:101D78001CF70EF1020E401ECDF804E027F38F0782
:101D88002EF8027D7FF424AF059884600599C1F888
:101D98000CA00598C56105990A6105984361059AE3
:101DA80004990020916106B0BDE8F08F4900450014
:101DB8004500490037003F002D002400940100240D
:101DC800690078004E005B00370042002DE9F44FAF
:101DD80088B00C46089BD2F810B0D2F814C09169AC
:101DE80081460791D969D3F808E0D3F80C801A6BBB
:101DF800D88C1B6A0128C0F23F81DFF810A3CDF808
:101E08000C90069205930494039C0AF10406083486
:101E18000394083C039DD4E9002308350395083D45
:101E2800D5E9004955BA5ABA63BA99FA99F405F04E
:101E3800FF072D0A56F8279005F0FF0756F8277078
:101E48002D0A4944C1F3090907EB912105F0FF0761
:101E58002D0AC1F3090646EA09490AF1040656F8AB
:101E680027600AF1040757F8255006EB912605EB81
:101E78009625C6F30901C5F3090646EA014602F0AC
:101E8800FF01120A029602F0FF0657F8211057F8D0
:101E98002660120A01EB952106EB9126C1F309058C
:101EA80002F0FF01120AC6F3090747EA05470AF1DB
:101EB8000405019755F8211001EB96210AF1040653
:101EC80056F8222003F0FF061B0A02EB9122C1F309
:101ED800090503F0FF011B0AC2F3090747EA054792
:101EE8000AF1040500970AF1040755F8266057F827
:101EF800211006EB922601EB9621C6F3090503F0A3
:101F0800FF061B0AC1F3090242EA05420AF1040569
:101F180055F8266006EB912657F8231001EB962119
:101F2800C6F3090504F0FF06240AC1F3090343EACE
:101F380005430AF1040555F8265005EB912504F0F0
:101F4800FF0157F82110240A04F0FF07240A01EBC7
:101F58009521C5F30906C1F3090545EA06450AF1C5
:101F6800040656F8277007EB91270AF1040151F887
:101F7800241001EB9721C7F30906654FC1F3090443
:101F8800890A44EA0644634E29FB0688029E26FB1A
:101F98000788019F604E27FB0688009F584E27FB45
:101FA8000688544E4C4F22FB06884E4E23FB06886B
:101FB8004FF4803625FB078824FB0686DFF8E4808B
:101FC800394F29FB08EEDDF80880A6F58016B344E2
:101FD800ABEB0C0BB44628FB07EE019FDFF8CC8077
:101FE80027FB08EE009FDFF8C88027FB08EEDFF824
:101FF800C480324F22FB08EEDFF8BC8023FB08EEDA
:10200800DFF8BC8025FB07EE354F24FB08E84FF0CE
:10201800010E29FB0EF9DDF808E02EFB0799019F58
:10202800DFF8CCE027FB0E99009FDFF8DCE027FB08
:102038000E99DFF8E8E022FB0E92DFF88890DFF8CF
:102048008CE023FB0922204B25FB0322069B24FB63
:102058000E2E059A049C5BFB12FB4FEA4B0B4FEAD2
:10206800CB1252FB13F2A41C401E049422F38F02DD
:1020780024F8022D7FF4C8AE0898C0F808E0089A42
:10208800C2F80C800898C1610899C1F810B0089886
:10209800C0F814C0089A07990020916109B0BDE8FA
:1020A800F08F000096008800AC00A200BA00B400CF
:1020B800C000BE00BE00C000B400BA00A200AC0060
:1020C80088009600420037005B004E0078006900E7
:1020D8000300010001000300030006000C000A00D1
:1020E800060003000A000F0019001500150019006A
:1020F8000F000A0015001C0030002E002A002400E2
:1021080024002D003F0037001C0015009401002416
:102118004E005B0069007800370042002D00240063
:1021280070B4840746D04C1E002941D0D5B203466E
:1021380002E0611EE4B30C4603F8015B9907F8D18D
:10214800032C2ED9D5B245EA05250F2C45EA0545BD
:1021580019D9264603F11001103E0F2E41F8105CE4
:1021680041F80C5C41F8085C41F8045C01F110018D
:10217800F2D8A4F1100121F00F0104F00F0410317E
:10218800032C0B440DD91E4621460439032946F871
:10219800045BFAD8211F21F0030104310B4404F039
:1021A80003042CB1D2B21C4403F8012BA342FBD187
:1021B80070BC70470C460346C2E780B584B000AFD8
:1021C800786039604FF0FF33FB603B681B68194645
:1021D800786800F031F80346002B28D1012000F080
:1021E800E1F83B681B681946786800F049F803462F
:1021F800002B1CD13B6819683B685B681A467868F5
:1022080000F096F80346002B11D13968786800F081
:102218005BF80346002B0AD13B689B68194678682F
:1022280000F0ACF80346002B01D10023FB60FB68EB
:1022380018461037BD4680BD80B582B000AF7860C3
:1022480039600E4B01221A600C4A3B6853600B4BF5
:1022580001229A60094B0022DA604FF6FF720749A3
:10226800786811F053FC0346002B02D04FF0FF337F
:1022780000E0002318460837BD4680BD1C06002430
:1022880080B582B000AF786039600E4B02221A60C8
:102298000C4A3B6853600B4B01229A60094B0022A1
:1022A800DA604FF6FF720749786811F02FFC034691
:1022B800002B02D04FF0FF3300E000231846083708
:1022C800BD4680BD1C06002480B584B000AF786090
:1022D80039603B68DA683B681B691A433B685B698D
:1022E8001A433B689B691A433B68DB691343FB60ED
:1022F8000E4B04221A603B681B680C4A53600B4B58
:1023080001229A60094AFB68D3604FF6FF720749B9
:10231800786811F0FBFB0346002B02D04FF0FF3327
:1023280000E0002318461037BD4680BD1C06002477
:1023380080B584B000AFF860B9607A600E4A7B68F7
:1023480013600D4ABB6853600B4B08229A600A4B16
:102358000022DA604FF6FF720749F86811F0D6FBE1
:102368000346002B02D04FF0FF3300E0002318464D
:102378001037BD4680BD00BF1C06002480B582B062
:1023880000AF786039603968786811F0F4FB03466B
:10239800002B02D04FF0FF3300E000231846083727
:1023A800BD4680BD80B584B000AF786006F01EFEE3
:1023B800F86000BF06F01AFE0246FB68D31A7A6876
:1023C8009A42F7D8002318461037BD4680BD000052
:1023D80080B485B000AF786039600023FB607B680B
:1023E800002B03D14FF0FF33FB6014E03B685A68C1
:1023F8007B685A603B689A687B689A603B68DA68D1
:102408007B68DA607B68074A5A617B68064A1A610A
:102418007B687A689A61FB6818461437BD465DF890
:10242800047B704793330008C533000880B586B035
:1024380000AFF860B9607A60FB6803F11000002310
:10244800BF4A002101F004F87861FB6803F110002D
:102458000323BC4AFF2100F0FBFF02467B691344BB
:102468007B61FB6803F110000023B74A002100F0EC
:10247800EFFF02467B6913447B61FB6803F11000A0
:102488000223B24AFF2100F0E3FF02467B691344AE
:102498007B61FB6803F110000023AB4A002100F0C8
:1024A800D7FF02467B6913447B61FB6803F1100088
:1024B8000023A74AC42100F0CBFF02467B691344DE
:1024C8007B610A21F86800F092FFFB6803F11000B5
:1024D8000023A04A002100F0BBFF02467B69134499
:1024E8007B61FB6803F1100000239B4AC42100F0C4
:1024F800AFFF02467B6913447B610A21F86800F04C
:1025080076FFFB6803F110000023944A002100F0D5
:102518009FFF02467B6913447B61FB6803F110004F
:1025280000238F4AC52100F093FF02467B691344BC
:102538007B61FB6803F1100000238A4A002100F048
:1025480087FF02467B6913447B61FB6803F1100037
:102558000023854AC52100F07BFF02467B691344AE
:102568007B61FB6803F110000023804A002100F022
:102578006FFF02467B6913447B61FB6803F110001F
:1025880000237B4AC02100F063FF02467B691344A5
:102598007B61FB6803F110000023694A002100F009
:1025A80057FF02467B6913447B61FB6803F1100007
:1025B8000023704AD92100F04BFF02467B6913447F
:1025C8007B61FB6803F1100000236B4A002100F0D7
:1025D8003FFF02467B6913447B61FB6803F11000EF
:1025E8000023664AC12100F033FF02467B69134489
:1025F8007B61FB6803F110000023614A002100F0B1
:1026080027FF02467B6913447B61FB6803F11000D6
:1026180000235C4AC12100F01BFF02467B6913447A
:102628007B61FB6803F110000023574A002100F08A
:102638000FFF02467B6913447B61FB6803F11000BE
:102648000023524AC52100F003FF02467B69134468
:102658007B61FB6803F1100000234D4A002100F064
:10266800F7FE02467B6913447B61FB6803F11000A7
:1026780000233D4AC52100F0EBFE02467B69134466
:102688007B61FB6803F1100000232D4A002100F054
:10269800DFFE02467B6913447B61FB6803F110008F
:1026A80002233C4AD82100F0D3FE02467B6913443A
:1026B8007B61FB6803F110000023374A002100F01A
:1026C800C7FE02467B6913447B61FB6803F1100077
:1026D8000023324AC52100F0BBFE02467B69134441
:1026E8007B61FB6803F1100000232D4A002100F0F4
:1026F800AFFE02467B6913447B61FB6803F110005F
:102708000023284AC02100F0A3FE02467B69134437
:102718007B61FB6803F110000023234A002100F0CD
:1027280097FE02467B6913447B61FB6803F1100046
:1027380000231E4AC52100F08BFE024638E000BF88
:10274800F158010824590108F258010828590108CC
:10275800F3580108F4580108F5580108F65801081B
:10276800F7580108F8580108F9580108FA580108FB
:10277800FB580108FC580108FD580108FE580108DB
:10278800FF580108005901080159010802590108B8
:10279800035901082C590108045901080559010871
:1027A800065901080759010808590108095901087B
:1027B8007B6913447B61FB6803F110000023BE4A68
:1027C800002100F045FE02467B6913447B61FB68EB
:1027D80003F110000023B94AC42100F039FE024673
:1027E8007B6913447B61FB6803F110000023B44A42
:1027F800002100F02DFE02467B6913447B61FB68D3
:1028080003F110000023AF4AC12100F021FE024667
:102818007B6913447B61FB6803F110000023AA4A1B
:10282800002100F015FE02467B6913447B61FB68BA
:1028380003F110000223A54AB32100F009FE024665
:102848007B6913447B61FB6803F110000023A04AF5
:10285800002100F0FDFD02467B6913447B61FB68A3
:1028680003F1100006239B4ACE2100F0F1FD024639
:102878007B6913447B61FB6803F110000023964ACF
:10288800002100F0E5FD02467B6913447B61FB688B
:1028980003F110000E23914ACE2100F0D9FD024623
:1028A8007B6913447B61FB6803F1100000238C4AA9
:1028B800002100F0CDFD02467B6913447B61FB6873
:1028C80003F110000E23874ACE2100F0C1FD024615
:1028D8007B6913447B61FB6803F110000023824A83
:1028E800002100F0B5FD02467B6913447B61FB685B
:1028F80003F110000A237D4ACF2100F0A9FD02460A
:102908007B6913447B61FB6803F110000023784A5C
:10291800002100F09DFD02467B6913447B61FB6842
:1029280003F110000023734ACF2100F091FD024605
:102938007B6913447B61FB6803F110000023644A40
:10294800002100F085FD02467B6913447B61FB682A
:1029580003F110000A23684ACB2100F079FD0246F2
:102968007B6913447B61FB6803F110000023634A11
:10297800002100F06DFD02467B6913447B61FB6812
:1029880003F110000F235E4ACB2100F061FD0246DF
:102998007B6913447B61FB6803F1100000234E4AF6
:1029A800002100F055FD02467B6913447B61FB68FA
:1029B80003F110000F23534ACB2100F049FD0246D2
:1029C8007B6913447B61FB6803F110000023444AD0
:1029D800002100F03DFD02467B6913447B61FB68E2
:1029E80003F110000A23484ACB2100F031FD0246CA
:1029F8007B6913447B61FB6803F1100000233A4AAA
:102A0800002100F025FD02467B6913447B61FB68C9
:102A180003F110000F233D4ACB2100F019FD0246B7
:102A28007B6913447B61FB6803F110000023304A83
:102A3800002100F00DFD02467B6913447B61FB68B1
:102A480003F110000F23324ACB2100F001FD0246AA
:102A58007B6913447B61FB6803F1100000232D4A56
:102A6800002100F0F5FC02467B6913447B61FB689A
:102A780003F110000A23284ACB2100F0E9FC0246A2
:102A88007B6913447B61FB6803F110000023234A30
:102A9800002100F0DDFC02467B6913447B61FB6882
:102AA80003F110000A231E4ACB2100F0D1FC024694
:102AB8007B6913447B6135E0FD5801080A59010818
:102AC800FF5801080B5901080C5901083059010831
:102AD800F2580108345901080D5901083C590108F8
:102AE8000E5901084C5901080F5901085C59010891
:102AF800105901081D5901086859010811590108A0
:102B0800745901088459010894590108A059010809
:102B1800B059010812590108C05901081359010890
:102B2800CC590108FB6803F110000023AE4A0021CC
:102B380000F08EFC02467B6913447B61FB6803F15D
:102B480010000A23A94ACC2100F082FC02467B69C6
:102B580013447B61FB6803F110000023A44A0021A1
:102B680000F076FC02467B6913447B61FB6803F145
:102B780010000F239F4ACC2100F06AFC02467B69B3
:102B880013447B61FB6803F1100000239A4A00217B
:102B980000F05EFC02467B6913447B61FB6803F12D
:102BA80010000F23954ACC2100F052FC02467B69A5
:102BB80013447B61FB6803F110000023904A002155
:102BC80000F046FC02467B6913447B61FB6803F115
:102BD80010000A238B4ACC2100F03AFC02467B699C
:102BE80013447B61FB6803F110000023864A00212F
:102BF80000F02EFC02467B6913447B61FB6803F1FD
:102C080010000F23814ACC2100F022FC02467B6988
:102C180013447B61FB6803F1100000237C4A002108
:102C280000F016FC02467B6913447B61FB6803F1E4
:102C380010000F23774ACC2100F00AFC02467B697A
:102C480013447B61FB6803F110000023724A0021E2
:102C580000F0FEFB02467B6913447B61FB6803F1CD
:102C6800100000236D4AC52100F0F2FB02467B6983
:102C780013447B61FB6803F110000023684A0021BC
:102C880000F0E6FB02467B6913447B61FB6803F1B5
:102C980010000023634AF52100F0DAFB02467B6945
:102CA80013447B61FB6803F1100000235E4A002196
:102CB80000F0CEFB02467B6913447B61FB6803F19D
:102CC80010000023594AC62100F0C2FB02467B6966
:102CD80013447B61FB6803F110000023544A002170
:102CE80000F0B6FB02467B6913447B61FB6803F185
:102CF800100003234F4AFF2100F0AAFB02467B691C
:102D080013447B61FB6803F110000023484A00214B
:102D180000F09EFB02467B6913447B61FB6803F16C
:102D280010000023424A002100F092FB02467B6912
:102D380013447B61FB6803F1100010233E4AE12134
:102D480000F086FB02467B6913447B61FB6803F154
:102D580010000023364A002100F07AFB02467B6906
:102D680013447B61FB6803F110001023334AE2210E
:102D780000F06EFB02467B6913447B61FB6803F13C
:102D8800100000232E4A112100F062FB02467B69E5
:102D980013447B617821F86800F029FBBB68002B9D
:102DA80012D0BB68022B53D1FB6803F1100000233B
:102DB800244A3A2100F04CFB02467B6913447B61AC
:102DC800214B02225A6044E0FB6803F11000002303
:102DD8001E4A3A2100F03CFB02467B6913447B61A2
:102DE800194B00225A6034E0F2580108D8590108FA
:102DF80011590108E45901080D590108F45901084D
:102E08000E590108045A01080F590108105A0108FF
:102E180010590108205A0108FD5801081E590108D7
:102E28001F59010820590108215901082259010890
:102E3800F1580108305A0108345A0108445A010867
:102E480014590108155901082C06002416590108BF
:102E580000BF7B68012B2AD16023FB74FB6803F158
:102E6800100007F113020023362100F0F1FA0246A0
:102E78007B6913447B61FB6803F110000423444A17
:102E88002A2100F0E5FA02467B6913447B61FB685E
:102E980003F1100004233F4A2B2100F0D9FA02461F
:102EA8007B6913447B613C4B01221A6002E03A4B78
:102EB80000221A60FB6803F110000023374A5121F1
:102EC80000F0C6FA02467B6913447B61344B93F8E1
:102ED8002730344AA2FB0323DB09DBB21A466423FA
:102EE80003FB02F32C4A9360FB6803F110000023F4
:102EF8002D4A532100F0ACFA02467B6913447B61EA
:102F0800FB6803F110000023284A552100F0A0FABD
:102F180002467B6913447B61FB6803F110000023C0
:102F2800234A5E2100F094FA02467B6913447B61D0
:102F3800FB6803F1100000231E4A292100F088FADB
:102F480002467B6913447B61FB6803F11000002390
:102F5800194A002100F07CFA02467B6913447B6120
:102F6800FB6803F110000023144A2C2100F070FACA
:102F780002467B6913447B617B69002B02D04FF0CA
:102F8800FF337B617B6918461837BD4680BD00BF9B
:102F9800E8580108EC5801082C06002417590108C4
:102FA800F0580108818080801859010819590108D2
:102FB8001A5901081B590108F15801081C59010840
:102FC80080B483B000AF78604FF0FF3318460C37F9
:102FD800BD465DF8047B704780B584B000AF78606B
:102FE80039607B6803F1100000233A68DA2100F0A9
:102FF80018FA0346002B03D04FF0FF33FB6001E0C3
:103008000023FB60FB6818461037BD4680BD0000F2
:1030180080B584B000AF786039603A6813461B0207
:103028009B1A104AA2FB03235B09DBB2FB727B6885
:1030380003F1100007F10B020023512100F008FAF8
:103048000346002B03D04FF0FF33FB6004E0064A31
:103058003B6893600023FB60FB6818461037BD4649
:1030680080BD00BF1F85EB512C06002480B483B0BF
:1030780000AF78603960054B9A683B681A60002396
:1030880018460C37BD465DF8047B70472C060024B3
:1030980080B584B000AF78600023FB727B6803F1D1
:1030A800100007F10B020023292100F0D1F9034693
:1030B800002B03D04FF0FF33FB6001E00023FB60DF
:1030C800FB6818461037BD4680BD80B584B000AF98
:1030D80078600023FB727B6803F1100007F10B0294
:1030E8000023282100F0B4F90346002B03D04FF049
:1030F800FF33FB6001E00023FB60FB6818461037D4
:10310800BD4680BD80B584B000AF7860396060236B
:10311800FB720023BB723B68012B06D03B68002B77
:1031280003D04FF0FF33FB604DE03B68012B25D106
:103138007B6803F1100007F10B020023362100F031
:1031480087F9F8607B6803F110000423234A2A21D9
:1031580000F07EF90246FB681344FB607B6803F1CC
:10316800100004231E4A2B2100F072F90246FB6866
:103178001344FB601B4B01221A6024E07B6803F1B7
:10318800100007F10A020023362100F061F9F86007
:103198007B6803F110000423104A2A2100F058F933
:1031A8000246FB681344FB607B6803F110000423AC
:1031B8000B4A2B2100F04CF90246FB681344FB60D4
:1031C800084B00221A60FB68002B02D04FF0FF3337
:1031D800FB60FB6818461037BD4680BDE8580108FB
:1031E800EC5801082C06002480B483B000AF786046
:1031F8003960054B1A683B681A60002318460C377B
:10320800BD465DF8047B70472C06002480B483B06B
:1032180000AF786039600E4B1B68002B02D0012B81
:1032280005D009E03B684FF4F0721A6009E03B688A
:103238004FF448721A6004E03B684FF448721A6011
:1032480000BF002318460C37BD465DF8047B704765
:103258002C06002480B483B000AF786039600E4B30
:103268001B68002B02D0012B05D009E03B684FF406
:1032780048721A6009E03B684FF4F0721A6004E083
:103288003B684FF4F0721A6000BF002318460C37F1
:10329800BD465DF8047B70472C06002480B485B0D9
:1032A80000AFF860B9607A604FF0FF331846143702
:1032B800BD465DF8047B704780B485B000AFF86008
:1032C800B9607A603B604FF0FF3318461437BD464B
:1032D8005DF8047B704780B485B000AFF860B960D2
:1032E8007A603B604FF0FF3318461437BD465DF8EF
:1032F800047B704780B485B000AFF860B9607A602D
:103308003B604FF0FF3318461437BD465DF8047B29
:10331800704780B485B000AFF860B9607A603B60F0
:103328004FF0FF3318461437BD465DF8047B7047ED
:1033380080B485B000AFF860B9607A603B604FF048
:10334800FF3318461437BD465DF8047B704780B4D8
:1033580085B000AFF860B9607A603B604FF0FF332A
:1033680018461437BD465DF8047B704780B485B0B5
:1033780000AFF860B9607A603B604FF0FF331846E1
:103388001437BD465DF8047B704790B587B000AF31
:10339800F8607A601A460B467B8113463B81FB68CE
:1033A8007B617B699C687B6918883B8979897A6825
:1033B800A047034618461C37BD4690BD90B587B058
:1033C80000AFF8607A601A460B467B8113463B8152
:1033D800FB687B617B695C687B6918883B897989B4
:1033E8007A68A047034618461C37BD4690BD80B58D
:1033F80084B000AF786039607B68DB689847034623
:10340800FB6000BF7B68DB68984703461A46FB6889
:10341800D31A3A689A42F5D8002318461037BD46A1
:1034280080BD90B585B000AFF8607A601A460B464B
:103438007B8113463B81FB685C68FB6898683B8925
:1034480079897A68A047034618461437BD4690BD67
:1034580090B585B000AFF8607A601A460B467B815C
:1034680013463B81FB681C68FB6898683B8979892F
:103478007A68A047034618461437BD4690BD000039
:1034880080B584B000AF7860396003237B817B68A6
:1034980003F1180007F10A0202234FF4817101F0C9
:1034A800B9FDF86000237B817B6803F1180007F100
:1034B8000A02022340F6170101F0ACFD0246FB6840
:1034C8001344FB607B6803F1180007F10A0202232A
:1034D8004FF4817101F09EFD0246FB681344FB60C6
:1034E8006C237B817B6803F1180007F10A02022331
:1034F800392101F08FFD0246FB681344FB603B68ED
:103508001B68002B0FD013237B817B6803F1180005
:1035180007F10A020223012101F07CFD0246FB6843
:103528001344FB600EE003237B817B6803F11800E2
:1035380007F10A020223012101F06CFD0246FB6833
:103548001344FB603221786801F0ECFC3B685B684F
:10355800032B00F2418101A252F823F07B380008C6
:10356800753500080F360008A936000840F60C43E8
:103578007B817B6803F1180007F10A020223052109
:1035880001F048FD0246FB681344FB6000237B8181
:103598007B6803F1180007F10A02022340F2016177
:1035A80001F038FD0246FB681344FB607B6803F1B9
:1035B800180007F10A02022340F2026101F02AFD15
:1035C8000246FB681344FB6002237B817B6803F19E
:1035D800180007F10A02022340F2046101F01AFD03
:1035E8000246FB681344FB607B6803F1180007F18F
:1035F8000A02022340F2056101F00CFD0246FB6855
:103608001344FB6036E140F203337B817B6803F1AE
:10361800180007F10A020223052101F0FBFC02460B
:10362800FB681344FB6001237B817B6803F118006E
:1036380007F10A02022340F2016101F0EBFC0246A5
:10364800FB681344FB607B6803F1180007F10A026A
:10365800022340F2026101F0DDFC0246FB681344DC
:10366800FB6000237B817B6803F1180007F10A02E5
:10367800022340F2046101F0CDFC0246FB681344CA
:10368800FB607B6803F1180007F10A02022340F28D
:10369800056101F0BFFC0246FB681344FB60E9E0EA
:1036A8003B681B68052B4AD140F60F737B817B680A
:1036B80003F1180007F10A020223052101F0AAFC10
:1036C8000246FB681344FB6003237B817B6803F19C
:1036D800180007F10A02022340F2016101F09AFC86
:1036E8000246FB681344FB607B6803F1180007F18E
:1036F8000A02022340F2026101F08CFC0246FB68D8
:103708001344FB607B6803F1180007F10A020223E7
:1037180040F2046101F07EFC0246FB681344FB6042
:103728007B6803F1180007F10A02022340F20561E1
:1037380001F070FC0246FB681344FB609AE040F617
:103748000F737B817B6803F1180007F10A020223DB
:10375800052101F05FFC0246FB681344FB6001236E
:103768007B817B6803F1180007F10A02022340F20B
:10377800016101F04FFC0246FB681344FB607B6863
:1037880003F1180007F10A02022340F2026101F076
:1037980041FC0246FB681344FB6002237B817B6883
:1037A80003F1180007F10A02022340F2046101F054
:1037B80031FC0246FB681344FB607B6803F1180088
:1037C80007F10A02022340F2056101F023FC0246D8
:1037D800FB681344FB604DE040F203337B817B6858
:1037E80003F1180007F10A020223052101F012FC77
:1037F8000246FB681344FB6001237B817B6803F16D
:10380800180007F10A02022340F2016101F002FCEC
:103818000246FB681344FB607B6803F1180007F15C
:103828000A02022340F2026101F0F4FB0246FB683F
:103838001344FB6000237B817B6803F1180007F1C8
:103848000A02022340F2046101F0E4FB0246FB682D
:103858001344FB607B6803F1180007F10A02022396
:1038680040F2056101F0D6FB0246FB681344FB6099
:1038780000E000BF3B681B68013B042B00F2E081BD
:1038880001A252F823F000BF793A0008A5380008D1
:1038980063390008493C0008373B00084FF443638C
:1038A8007B817B6803F1180007F10A0202230421D7
:1038B80001F0B0FB0246FB681344FB60DB237B810D
:1038C8007B6803F1180007F10A0202234FF48A61AA
:1038D80001F0A0FB0246FB681344FB604FF4C043B1
:1038E8007B817B6803F1180007F10A020223022199
:1038F80001F090FB0246FB681344FB6002237B81C6
:103908007B6803F1180007F10A0202234FF4C16132
:1039180001F080FB0246FB681344FB607B6803F1FF
:10392800180007F10A02022340F2096101F072FB54
:103938000246FB681344FB600E237B817B6803F11E
:10394800180007F10A0202234FF4E06101F062FB5C
:103958000246FB681344FB6073E111237B817B689B
:1039680003F1180007F10A020223282101F052FB93
:103978000246FB681344FB6035237B817B6803F1B7
:10398800180007F10A020223292101F043FB02462D
:10399800FB681344FB607B6803F1180007F10A0217
:1039A80002232A2101F036FB0246FB681344FB6020
:1039B80040F203337B817B6803F1180007F10A02A8
:1039C8000223042101F026FB0246FB681344FB6036
:1039D800DB237B817B6803F1180007F10A020223CD
:1039E8004FF4886101F016FB0246FB681344FB6044
:1039F80046F250337B817B6803F1180007F10A0215
:103A08000223022101F006FB0246FB681344FB6017
:103A180002237B817B6803F1180007F10A02022365
:103A280040F2066101F0F6FA0246FB681344FB60B7
:103A38007B6803F1180007F10A02022340F20761CC
:103A480001F0E8FA0246FB681344FB6048F20D03F4
:103A58007B817B6803F1180007F10A0202234FF407
:103A6800E06101F0D7FA0246FB681344FB60E8E026
:103A78004FF443737B817B6803F1180007F10A0256
:103A88000223042101F0C6FA0246FB681344FB60D6
:103A9800DB237B817B6803F1180007F10A0202230C
:103AA8004FF4886101F0B6FA0246FB681344FB60E4
:103AB80046F250337B817B6803F1180007F10A0254
:103AC8000223022101F0A6FA0246FB681344FB60B8
:103AD80002237B817B6803F1180007F10A020223A5
:103AE80040F2066101F096FA0246FB681344FB6057
:103AF8007B6803F1180007F10A02022340F207610C
:103B080001F088FA0246FB681344FB600D237B81B1
:103B18007B6803F1180007F10A0202234FF4E06101
:103B280001F078FA0246FB681344FB6089E040F62E
:103B38003C737B817B6803F1180007F10A020223BA
:103B4800042101F067FA0246FB681344FB60DB239B
:103B58007B817B6803F1180007F10A0202234FF406
:103B68008A6101F057FA0246FB681344FB607B68E0
:103B780003F1180007F10A0202234FF4886101F0EB
:103B880049FA0246FB681344FB6046F2A0337B8186
:103B98007B6803F1180007F10A020223022101F0F1
:103BA80039FA0246FB681344FB6002237B817B6879
:103BB80003F1180007F10A02022340F2066101F03E
:103BC80029FA0246FB681344FB607B6803F118007E
:103BD80007F10A02022340F2076101F01BFA0246CC
:103BE800FB681344FB607B6803F1180007F10A02C5
:103BF80002234FF4C16101F00DFA0246FB68134439
:103C0800FB607B6803F1180007F10A02022340F207
:103C1800096101F0FFF90246FB681344FB600D23BC
:103C28007B817B6803F1180007F10A0202234FF435
:103C3800E06101F0EFF90246FB681344FB6000E025
:103C480000BF3B689B681946786800F0F9FF024698
:103C5800FB681344FB603B681B68052B1AD10021E5
:103C6800786800F059FF0246FB681344FB600321A3
:103C7800786800F0ABFF0246FB681344FB607B6882
:103C880018330121184601F0F3FA0246FB68134481
:103C9800FB601BE03B68DB681946786800F03CFF76
:103CA8000246FB681344FB600221786800F08EFF2F
:103CB8000246FB681344FB607B68183301211846F1
:103CC80001F0D6FA0246FB681344FB6000237B81AF
:103CD8007B6803F1180007F10A02022340F202315F
:103CE80001F098F90246FB681344FB600A237B81C4
:103CF8007B6803F1180007F10A0202234FF40271EE
:103D080001F088F90246FB681344FB6001237B81BC
:103D18007B6803F1180007F10A0202234FF40071CF
:103D280001F078F90246FB681344FB603B685B6866
:103D3800002B00F0C6813B685B68022B64D13B68AE
:103D48001B68002B60D14FF480737B817B6803F183
:103D5800180007F10A0202232D2101F05BF902463F
:103D6800FB681344FB607B6803F1180007F10A0243
:103D780002232E2101F04EF90246FB681344FB6032
:103D8800524B1B78012B19D14FF401437B817B687F
:103D980003F1180007F10A0202234FF4887101F0B9
:103DA80039F90246FB681344FB60484B00221A703D
:103DB80040F24511786801F0B5F814E048F20813AC
:103DC8007B817B6803F1180007F10A0202234FF494
:103DD800887101F01FF90246FB681344FB60322129
:103DE800786801F09FF800237B817B6803F1180055
:103DF80007F10A0202234FF4846101F00BF902462D
:103E0800FB681344FB60F4E04FF440737B817B68EC
:103E180003F1180007F10A020223032101F0FAF85E
:103E28000246FB681344FB6000237B817B6803F137
:103E3800180007F10A020223222101F0EBF80246DA
:103E4800FB681344FB607B6803F1180007F10A0262
:103E58000223232101F0DEF80246FB681344FB60CD
:103E68004FF440737B817B6803F1180007F10A0265
:103E78000223362101F0CEF80246FB681344FB60AA
:103E880043F203037B817B6803F1180007F10A0200
:103E98000223012101F0BEF80246FB681344FB60CF
:103EA8003B681B68052B13D140F205237B817B6897
:103EB80003F1180007F10A020223512101F0AAF8C0
:103EC8000246FB681344FB6011E000BF9400002425
:103ED80005237B817B6803F1180007F10A0202239E
:103EE800512101F097F80246FB681344FB6043F246
:103EF80003337B817B6803F1180007F10A02022370
:103F0800012101F087F80246FB681344FB60222375
:103F18007B817B6803F1180007F10A020223602104
:103F280001F078F80246FB681344FB6049F62573F4
:103F38007B817B6803F1180007F10A0202234C21F8
:103F480001F068F80246FB681344FB600F217868AB
:103F580000F0E8FF01237B817B6803F1180007F17B
:103F68000A0202232D2101F055F80246FB6813448A
:103F7800FB607B6803F1180007F10A0202232E2177
:103F880001F048F80246FB681344FB604FF44C7399
:103F98007B817B6803F1180007F10A0202230321E1
:103FA80001F038F80246FB681344FB6033237B8139
:103FB8007B6803F1180007F10A020223542101F07B
:103FC80029F80246FB681344FB6040F20111786847
:103FD80000F0A8FFEE237B817B6803F1180007F14E
:103FE8000A020223602101F015F80246FB68134417
:103FF800FB60C0237B817B6803F1180007F10A028C
:1040080002234FF4C26101F005F80246FB6813442D
:10401800FB607B6803F1180007F10A02022340F2F3
:10402800116100F0F7FF0246FB681344FB601023A0
:104038007B817B6803F1180007F10A0202234FF421
:10404800846100F0E7FF0246FB681344FB60C0236D
:104058007B817B6803F1180007F10A02022340F212
:10406800126100F0D7FF0246FB681344FB607B68CF
:1040780003F1180007F10A02022340F2136100F06D
:10408800C9FF0246FB681344FB6010237B817B68F1
:1040980003F1180007F10A02022340F2224100F05E
:1040A800B9FF0246FB681344FB603B681B69DBB23F
:1040B8001A460121786800F09FF90246FB6813440C
:1040C800FB603B681B68002B00F0B5803B681B68F1
:1040D800012B03D03B681B68022B30D113237B8153
:1040E8007B6803F1180007F10A020223012100F09E
:1040F80091FF0246FB681344FB6002237B817B68C7
:1041080003F1180007F10A0202234FF4C46100F01A
:1041180081FF0246FB681344FB604FF460537B81C8
:104128007B6803F1180007F10A02022340F21141EB
:1041380000F070FF0246FB681344FB606FE03B68C9
:104148001B68052B3ED113237B817B6803F1180084
:1041580007F10A020223012100F05CFF0246FB6816
:104168001344FB6002237B817B6803F1180007F18D
:104178000A0202234FF4C46100F04CFF0246FB68B8
:104188001344FB604FF4C0537B817B6803F1180034
:1041980007F10A0202234FF4826100F03BFF024656
:1041A800FB681344FB607B6803F1180007F10A02FF
:1041B800022340F2114100F02DFF0246FB68134430
:1041C800FB602CE00B237B817B6803F1180007F16F
:1041D8000A020223182100F01DFF0246FB6813445F
:1041E800FB607B6803F1180007F10A0202231A2119
:1041F80000F010FF0246FB681344FB604FF4C05305
:104208007B817B6803F1180007F10A0202234FF44F
:10421800826100F0FFFE0246FB681344FB603B68C6
:104228001B69DBB21A460021786800F0E5F80246FF
:10423800FB681344FB60FB68002B02D04FF0FF3390
:10424800FB60FB6818461037BD4680BD80B582B05C
:1042580000AF78600021786800F061F803461846DE
:104268000837BD4680BD80B584B000AF786039603E
:104278007B681B6898477B68183307F10A02114668
:10428800184600F000FFF8607B891A463B681A6000
:10429800FB6818461037BD4680BD80B582B000AFB8
:1042A80078600021786800F0D3F90346184608378B
:1042B800BD4680BD80B584B000AF786001237B81A6
:1042C8000121786800F0C4F90346002B03D04FF0B1
:1042D800FF33FB6011E07B6803F1180007F10A0265
:1042E8000223022100F096FE0346002B03D04FF074
:1042F800FF33FB6001E00023FB60FB6818461037C2
:10430800BD4680BD80B582B000AF78600021786876
:1043180000F09EF9034618460837BD4680BD80B5B3
:1043280084B000AF786039600121786800F090F9B6
:10433800F8603B68012B54D04FF400737B817B6895
:1043480003F1180007F10A0202234FF4846100F018
:1043580061FE0246FB681344FB607B6803F11800AA
:1043680007F10A02022340F2224100F053FE0246FE
:10437800FB681344FB6000237B817B6803F1180012
:1043880007F10A0202232D2100F044FE0246FB68D1
:104398001344FB607B6803F1180007F10A0202234B
:1043A8002E2100F037FE0246FB681344FB607B6851
:1043B80003F1180007F10A020223052100F02AFE82
:1043C8000246FB681344FB607B6803F1180007F1A1
:1043D8000A020223002100F01DFE0246FB68134476
:1043E800FB60FB68002B02D04FF0FF33FB60FB68DB
:1043F80018461037BD4680BD80B586B000AFF8605E
:10440800B9601346FB71BB68012B40F08980FB79CA
:104418003E2B3CD90021F86800F01AF9786140F287
:104428007F137B82FB6803F1180007F11202022355
:104438001C2100F0EFFD02467B6913447B61FB6899
:1044480003F1180007F1120202231D2100F0E2FD1A
:1044580002467B6913447B61FB6803F1180007F18E
:1044680012020223262100F0D5FD02467B6913447F
:104478007B61FB6803F1180007F112020223272170
:1044880000F0C8FD02467B6913447B6183E0FB7939
:10449800002B05D10121F86800F0DAF878617AE09C
:1044A8000021F86800F0D4F87861FB799BB243F4F6
:1044B800A0739BB27B82FB6803F1180007F112021C
:1044C80002231C2100F0A6FD02467B6913447B6190
:1044D800FB6803F1180007F1120202231D2100F006
:1044E80099FD02467B6913447B61FB6803F1180060
:1044F80007F112020223262100F08CFD02467B6997
:1045080013447B61FB6803F1180007F112020223D0
:10451800272100F07FFD02467B6913447B613AE066
:10452800FB799BB243F480739BB27B82FB6803F1F7
:10453800180007F1120202234FF4806100F06AFDAF
:104548007861FB6803F1180007F11202022340F2B8
:10455800014100F05FFD02467B6913447B61FB6803
:1045680003F1180007F11202022340F2044100F09F
:1045780051FD02467B6913447B61FB6803F1180017
:1045880007F11202022340F2054100F043FD024602
:104598007B6913447B617B69002B02D04FF0FF33AA
:1045A8007B617B6918461837BD4680BD80B586B0EB
:1045B80000AFF860B9607A6000237B61BB68012BAB
:1045C8001ED1FB68183307F112021146184600F095
:1045D8006AFD0346002B03D04FF0FF337B612DE0CB
:1045E8007B8A1A46642303FB02F3174A82FB0312F1
:1045F8001A445211DB17D31ADAB27B681A701DE01D
:10460800FB68183307F112021146184600F060FEE5
:104618000346002B03D04FF0FF337B610EE07B8A0B
:104628001A46642303FB02F3084A82FB03121A4466
:10463800D211DB17D31ADAB27B681A707B69184675
:104648001837BD4680BD00BF832008823BC71A8942
:1046580080B584B000AF786039603B68012B1CD10D
:104668004FF400737B817B6803F1180007F10A029D
:1046780002234FF4846100F0CDFCF8607B6803F1FD
:10468800180007F10A02022340F2224100F0C2FC9E
:104698000246FB681344FB601AE010237B817B68A9
:1046A80003F1180007F10A0202234FF4846100F0B5
:1046B800B1FCF8607B6803F1180007F10A020223D5
:1046C80040F2224100F0A6FC0246FB681344FB605E
:1046D800FB68002B02D04FF0FF33FB60FB681846E5
:1046E8001037BD4680BD80B584B000AF78603960B2
:1046F8003B68022B03D03B68042B40F09C800023CE
:104708007B817B6803F1180007F10A02022301216B
:1047180000F080FCF86040F203337B817B6803F192
:10472800180007F10A020223052100F073FC024673
:10473800FB681344FB6001237B817B6803F118004D
:1047480007F10A02022340F2016100F063FC02460D
:10475800FB681344FB607B6803F1180007F10A0249
:10476800022340F2026100F055FC0246FB68134444
:10477800FB6000237B817B6803F1180007F10A02C4
:10478800022340F2046100F045FC0246FB68134432
:10479800FB607B6803F1180007F10A02022340F26C
:1047A800056100F037FC0246FB681344FB604FF4D8
:1047B80080737B817B6803F1180007F10A020223EA
:1047C8002D2100F027FC0246FB681344FB607B6840
:1047D80003F1180007F10A0202232E2100F01AFC47
:1047E8000246FB681344FB604FF401437B817B68FE
:1047F80003F1180007F10A0202234FF4887100F050
:1048080009FC0246FB681344FB604FF49671786814
:1048180000F088FB00237B817B6803F1180007F117
:104828000A0202234FF4846100F0F4FB0246FB689D
:104838001344FB6065E13B68012B49D140F60C430A
:104848007B817B6803F1180007F10A020223052126
:1048580000F0E0FBF86000237B817B6803F118001F
:1048680007F10A02022340F2016100F0D3FB02467D
:10487800FB681344FB607B6803F1180007F10A0228
:10488800022340F2026100F0C5FB0246FB681344B4
:10489800FB6002237B817B6803F1180007F10A02A1
:1048A800022340F2046100F0B5FB0246FB681344A2
:1048B800FB607B6803F1180007F10A02022340F24B
:1048C800056100F0A7FB0246FB681344FB603BE070
:1048D80040F60F737B817B6803F1180007F10A0229
:1048E8000223052100F096FBF86001237B817B6899
:1048F80003F1180007F10A02022340F2016100F0F7
:1049080089FB0246FB681344FB607B6803F11800CF
:1049180007F10A02022340F2026100F07BFB024623
:10492800FB681344FB6002237B817B6803F118005A
:1049380007F10A02022340F2046100F06BFB024611
:10494800FB681344FB6000BF4FF440737B817B68B6
:1049580003F1180007F10A020223032100F05AFBB1
:104968000246FB681344FB6000237B817B6803F1EC
:10497800180007F10A020223222100F04BFB02462D
:10498800FB681344FB607B6803F1180007F10A0217
:104998000223232100F03EFB0246FB681344FB6020
:1049A8004FF440737B817B6803F1180007F10A021A
:1049B8000223362100F02EFB0246FB681344FB60FD
:1049C80043F203037B817B6803F1180007F10A02B5
:1049D8000223012100F01EFB0246FB681344FB6022
:1049E80005237B817B6803F1180007F10A02022383
:1049F800512100F00FFB0246FB681344FB6043F2B1
:104A080003337B817B6803F1180007F10A02022354
:104A1800012100F0FFFA0246FB681344FB602223E1
:104A28007B817B6803F1180007F10A0202236021E9
:104A380000F0F0FA0246FB681344FB6049F6257360
:104A48007B817B6803F1180007F10A0202234C21DD
:104A580000F0E0FA0246FB681344FB600F21786817
:104A680000F060FA01237B817B6803F1180007F1ED
:104A78000A0202232D2100F0CDFA0246FB681344F6
:104A8800FB607B6803F1180007F10A0202232E215C
:104A980000F0C0FA0246FB681344FB604FF44C7305
:104AA8007B817B6803F1180007F10A0202230321C6
:104AB80000F0B0FA0246FB681344FB6033237B81A5
:104AC8007B6803F1180007F10A020223542100F061
:104AD800A1FA0246FB681344FB6040F201117868B2
:104AE80000F020FAEE237B817B6803F1180007F1C0
:104AF8000A020223602100F08DFA0246FB68134483
:104B0800FB60FB68002B02D04FF0FF33FB60FB68B3
:104B180018461037BD4680BD80B584B000AF7860B8
:104B280039600023FB607B6818333A6892B21146FB
:104B3800184600F04BFB0346002B02D04FF0FF3322
:104B4800FB60FB6818461037BD4680BD80B584B051
:104B580000AF786039600023FB6000237B817B68AD
:104B6800183307F10A021146184600F05FFB0346A6
:104B7800002B03D04FF0FF33FB6021E07B89032B30
:104B88001AD801A252F823F0A14B0008A94B00083B
:104B9800B14B0008B94B00083B6800221A600FE0CF
:104BA8003B6801221A600BE03B6802221A6007E0AA
:104BB8003B6803221A6003E03B6800221A6000BFCA
:104BC800FB6818461037BD4680BD00BF80B584B06D
:104BD80000AF786039600023FB607B6818333A685F
:104BE80092B21146184600F09FFA0346002B02D0F5
:104BF8004FF0FF33FB60FB6818461037BD4680BD99
:104C080080B584B000AF786039600023FB607B68B2
:104C1800183307F10A021146184600F0B5FA0346A0
:104C2800002B03D04FF0FF33FB6003E07B891A466B
:104C38003B681A60FB6818461037BD4680BD000007
:104C480080B584B000AF786039603B68554A9342BC
:104C58005DD03B68534A934200F291803B684AF624
:104C6800444293427DD03B684AF64442934200F264
:104C780086803B68B3F5FA4F3BD03B68B3F5FA4FF3
:104C88007DD83B6845F2226293425CD03B6845F28E
:104C98002262934273D83B68B3F57A5F1BD03B68B6
:104CA800B3F57A5F6BD83B68B3F5FA5F05D03B681C
:104CB80042F61132934238D061E003237B817B684E
:104CC80003F1180007F10A0202234FF4047100F0FF
:104CD800A1F9F86061E033237B817B6803F1180058
:104CE80007F10A0202234FF4047100F093F9F86007
:104CF80053E063237B817B6803F1180007F10A0204
:104D080002234FF4047100F085F9F86045E0A3230D
:104D18007B817B6803F1180007F10A0202234FF434
:104D2800047100F077F9F86037E013237B817B6822
:104D380003F1180007F10A0202234FF4047100F08E
:104D480069F9F86029E043237B817B6803F1180047
:104D580007F10A0202234FF4047100F05BF9F860CE
:104D68001BE073237B817B6803F1180007F10A02BB
:104D780002234FF4047100F04DF9F8600DE083232D
:104D88007B817B6803F1180007F10A0202234FF4C4
:104D9800047100F03FF9F86000BFFB68184610374F
:104DA800BD4680BD0077010080B584B000AF786053
:104DB80039600023FB6000237B817B68183307F18F
:104DC8000A021146184600F08DF90346002B03D05D
:104DD8004FF0FF33FB6043E07B890A2B3FD801A2E9
:104DE80052F823F0194E0008234E0008674E0008B9
:104DF8002D4E0008374E0008674E0008414E000847
:104E08004B4E0008554E0008674E00085F4E0008DC
:104E18003B684FF4FA521A6022E03B6842F61132BE
:104E28001A601DE03B684FF47A521A6018E03B683C
:104E380045F222621A6013E03B684FF4FA421A60A6
:104E48000EE03B684AF644421A6009E03B684BF6BC
:104E580080321A6004E03B68044A1A6000E000BF30
:104E6800FB6818461037BD4680BD00BF00770100BB
:104E780080B584B000AF78600023FB607B6818338E
:104E88000021184600F0EEF80346002B02D04FF040
:104E9800FF33FB60FB6818461037BD4680BD000035
:104EA80080B584B000AF786039607B68002B03D18F
:104EB8004FF0FF33FB602CE03B681A687B681A6090
:104EC8003B685A687B685A603B681A897B681A8114
:104ED8003B68DA687B68DA603B681A697B681A6144
:104EE8003B685A697B685A617B680C4ADA617B685F
:104EF8000B4A9A617B687A681A627B681B68002B88
:104F080004D07B681B689847F86002E04FF0FF33D5
:104F1800FB60FB6818461037BD4680BD614F00082E
:104F2800934F000880B584B000AF786039607B6823
:104F38005B6998470346FB6000BF7B685B699847DD
:104F480003461A46FB68D31A3A689A42F5D80023F2
:104F580018461037BD4680BD90B587B000AFF860E1
:104F68007A601A460B467B8113463B81FB687B615E
:104F78007B691C697B6918893B8979897A68A047AC
:104F8800034618461C37BD4690BD90B587B000AFA4
:104F9800F8607A601A460B467B8113463B81FB68B2
:104FA8007B617B69DC687B6918893B8979897A68C8
:104FB800A047034618461C37BD4690BD90B587B03C
:104FC80000AFF8607A601A460B467B8113463B8136
:104FD800FB685C68FB6898683B8979897A68A047B0
:104FE80078617B69002B10DB7B681B881B0A7B823E
:104FF8007B681B881B029BB21AB2B7F912301343A5
:105008001BB27B827B687A8A1A807B6918461C37B8
:10501800BD4690BD90B587B000AFF8607A601A467B
:105028000B467B8113463B817B681B881B0A9BB21E
:10503800FB827B681B881B029BB21AB2FB8A1BB2DD
:1050480013431BB29BB2FB82FB681C68FB68986821
:105058003B8907F116027989A047034618461C3791
:10506800BD4690BD80B582B000AF78600B467B80AE
:10507800BA1C022300217868FFF7CCFF03461846C4
:105088000837BD4680BD80B582B000AF7860396012
:1050980002233A6800217868FFF790FF0346184614
:1050A8000837BD4680BD80B584B000AF78603960F0
:1050B80002233A681C217868FFF780FFF860FB68D4
:1050C800002B0AD13B681B8803F03F039AB23B6868
:1050D8001A803B681A883B681A80FB6818461037A4
:1050E800BD4680BD80B584B000AF786039600223CA
:1050F8003A684FF404717868FFF760FFF860FB685E
:10510800002B0CD13B681B8803F0F0039AB23B6874
:105118001A803B681B881B099AB23B681A80FB6897
:1051280018461037BD4680BD80B584B000AF7860A2
:105138000B467B8000237B8107F10A0202234FF490
:1051480040717868FFF73AFFF860FB68002B16D1CA
:105158007B8923F018039BB27B817B88DB001AB222
:105168007B891BB213431BB29BB27B8107F10A02F6
:1051780002234FF440717868FFF74CFFF860FB6832
:1051880018461037BD4680BD80B584B000AF786042
:10519800396002233A684FF440717868FFF70EFFD0
:1051A800F860FB68002B0CD13B681B8803F01803E0
:1051B8009AB23B681A803B681B88DB089AB23B6846
:1051C8001A80FB6818461037BD4680BD80B584B08C
:1051D80000AF78600B467B8000237B8107F10A02D1
:1051E80002234FF440717868FFF7E8FEF860FB6827
:1051F800002B16D17B8923F060039BB27B817B88CF
:105208005B011AB27B891BB213431BB29BB27B8131
:1052180007F10A0202234FF440717868FFF7FAFE9B
:10522800F860FB6818461037BD4680BD80B584B06D
:1052380000AF7860396002233A684FF440717868AB
:10524800FFF7BCFEF860FB68002B0CD13B681B889D
:1052580003F060039AB23B681A803B681B885B09BD
:105268009AB23B681A80FB6818461037BD4680BD65
:1052780080B584B000AF78600B467B8000237B81CB
:1052880007F10A0202234FF440717868FFF796FE8F
:10529800F860FB68002B16D17B8923F480439BB20E
:1052A8007B817B889B031AB27B891BB213431BB299
:1052B8009BB27B8107F10A0202234FF440717868A0
:1052C800FFF7A8FEF860FB6818461037BD4680BD9A
:1052D80080B584B000AF7860396002233A684FF433
:1052E80080617868FFF76AFEF860FB68002B09D1D7
:1052F8003B681B88DBB29AB23B681A803B681A8805
:105308003B681A80FB6818461037BD4680BD000010
:1053180080B58AB000AF0346FB7100237B621B4B4C
:10532800D3F8E030194A43F48073C2F8E030174BE1
:10533800D3F8E03003F48073FB60FB68FB79144A10
:1053480052F823303B6101237B610123BB610323B6
:10535800FB61FB790F4A52F8233007F1100211461E
:10536800184608F007FAFB790A4A52F82300FB7935
:10537800074A52F823309BB20122194608F0CCFCA8
:105388007B6A18462837BD4680BD00BF00440258D6
:10539800545A01089C00002480B584B000AF03462D
:1053A800FB710023FB60FB79084A52F82300FB7964
:1053B800074A52F823309BB20022194608F0ACFC89
:1053C800FB6818461037BD4680BD00BF9C0000240E
:1053D800545A010880B588B000AF03460A46FB71ED
:1053E8001346BB712D4BD3F8E0302C4A43F004032D
:1053F800C2F8E030294BD3F8E03003F00403BB6077
:10540800BB684FF40053FB6000237B610223BB6140
:10541800BB79002B0CD100233B61FB79204A52F861
:10542800233007F10C021146184608F0A3F930E0C2
:105438001C4B3B61FB791A4A52F8233007F10C02E6
:105448001146184608F096F9FB79DB00164A1A440B
:10545800FB79164951F823301946104608F039F9F6
:10546800FB79DB00104A9818FB79114A52F823306F
:105478001A46002108F00EF92820FB790D4A52F847
:1054880023300022194603F0FCFE2823184603F0B7
:1054980012FF002318462037BD4680BD004402583D
:1054A800AC00002400001111281D0024A45A010892
:1054B800C4000024C800002480B582B000AF0346B1
:1054C800FB71FB79064A52F823304FF4005211461B
:1054D800184608F009FC034618460837BD4680BD43
:1054E800AC00002480B582B000AF0346FB71FB79A5
:1054F800DB00044A1344184608F000F900BF0837D7
:10550800BD4680BD281D002480B500AF00200FF0E7
:1055180069FA00BF80BD000080B590B000AF0346B7
:10552800FB710B46BB7113467B710023BB637A7911
:10553800684B1B681343674A13600023FB63C0E092
:105548000122FB6B02FA03F37B637A797B6B1340CE
:105558007A6B9A4240F0B280FB79002B40F0AE8023
:105568007B6B012B0FD15C4BD3F8E0305A4A43F4E4
:105578008063C2F8E030584BD3F8E03003F480631E
:10558800FB61FB694AE07B6B022B0FD1524BD3F8CE
:10559800E030514A43F48063C2F8E0304E4BD3F810
:1055A800E03003F48063BB61BB6937E07B6B042B9D
:1055B8000FD1494BD3F8E030474A43F48063C2F82F
:1055C800E030454BD3F8E03003F480637B617B69BE
:1055D80024E07B6B082B0FD13F4BD3F8E0303E4AD9
:1055E80043F48063C2F8E0303B4BD3F8E03003F477
:1055F80080633B613B6911E07B6B102B0ED1364B0E
:10560800D3F8E030344A43F48063C2F8E030324BD8
:10561800D3F8E03003F48063FB60FB682F4AFB6B30
:1056280032F813303B620123BB620323FB62BB7970
:10563800002B0CD100237B62294AFB6B52F82330E4
:1056480007F120021146184608F094F836E0254B79
:105658007B62234AFB6B52F8233007F12002114684
:10566800184608F087F8FB6BDB001F4A1A441F49ED
:10567800FB6B51F823301946104608F02AF8FB6BEB
:10568800DB00194A98181A4AFB6B52F823301A465D
:10569800002107F0FFFF174AFB6B32F91300164A87
:1056A800FB6B52F823300022194603F0EAFD114A39
:1056B800FB6B32F91330184603F0FDFDFB6B013329
:1056C800FB63FB6B042B7FF63BAFBB6B1846403785
:1056D800BD4680BD3C060024004402586C5A0108AF
:1056E800B00000240000311140060024A85A010827
:1056F800CC000024785A0108E000002480B586B068
:1057080000AF03460A46FB711346BB71FB79002BB9
:1057180016D1BB793B613B6993FAA3F3FB60FB6845
:105728007B617B69002B01D1202303E07B69B3FAFD
:1057380083F3DBB2DB00044A1344184607F0DEFFAC
:1057480000BF1837BD4680BD4006002480B500AFB5
:10575800102100200EF0D6FF00BF80BD80B500AF3D
:10576800022100200EF0CEFF00BF80BD80B500AF43
:10577800012100200EF0C6FF00BF80BD80B500AF3C
:10578800042100200EF0BEFF00BF80BD80B500AF31
:10579800082100200EF0B6FF00BF80BD80B594B090
:1057A80000AF786039600023FB647B68012B03D964
:1057B8006FF00103FB64DAE03B6819686E487A68A9
:1057C8001346DB0013449B000344043319606A4901
:1057D8007A681346DB0013449B000B447A681A600E
:1057E8003B68596864487A681346DB0013449B0099
:1057F8000344083319603B6899685F487A68134620
:10580800DB0013449B0003440C3319603B68D968E0
:1058180059487A681346DB0013449B000344143349
:1058280019603B68196954487A681346DB001344C9
:105838009B000344103319604F497A681346DB0014
:1058480013449B000B441C3300221A6000F0E8FF4D
:105858000346002B02D06FF00403FB64FB6C002BA3
:1058680040F085803B685B681946444800F05DF964
:105878000346002B03D06FF00803FB6477E03F4B2F
:105888003F4A1A603D4801F025F8FB6C002B6ED1A9
:105898003B685B68FB6000233B610123FB613B685D
:1058A800DB68012B02D14FF4805300E00023BB6179
:1058B8003B689B68202B01D1E02300E080237B61BB
:1058C8008023FB6240233B634FF400537B62002339
:1058D8003B620023BB6205237B6307F10C03194677
:1058E800264800F099F80346002B03D06FF0030315
:1058F800FB643CE03B689B68202B01D1032300E05C
:1059080000237B643B685B683B640023BB633B68A4
:105918001B68FB633B681B69642B0AD83B681A69E0
:1059280013469B019B1A174AA2FB03235B09DBB2B0
:1059380000E03F23BB64144B1B681B68134A1268C2
:1059480007F13801104698470346002B02D06FF044
:105958000403FB64FB6C002B09D107497A681346E2
:10596800DB0013449B000B441C3302221A60FB6CBF
:1059780018465037BD4680BD14070024581E002421
:10598800045801401F85EB516806002410070024C5
:1059980080B584B000AF78600023FB607B68012B82
:1059A80003D96FF00103FB6027E0164801F032FAD3
:1059B800144B154A1A60154B1B685B68144A126829
:1059C800104698470346002B03D06FF00403FB6092
:1059D80013E00C480DF07CFA0346002B03D06FF05F
:1059E8000303FB6009E00B497A681346DB001344A4
:1059F8009B000B441C3300221A60FB6818461037C2
:105A0800BD4680BD581E0024045801406806002485
:105A1800100700241407002480B584B000AF786014
:105A280039600023FB737B681B681A687B681B68F6
:105A380022F480321A603B68DA687B68DA623B6875
:105A48001A687B681A623B685A687B685A607B6888
:105A580000229A617B6800225A643B689A687B68D6
:105A68009A647B680022DA643B681A697B681A6565
:105A78003B685A697B689A603B689A697B685A6197
:105A88007B680122DA613B68DA697B68DA607B68E7
:105A980000221A637B6800225A637B6800225A62DC
:105AA8007B6800229A627B6800221A617B68002268
:105AB80083F838207B6800221A647B680022DA6346
:105AC8003B681A6A7B685A653B685A6A7B689A65BC
